:020000040800F2
:10000000D00600207902000847190008FB130008F9
:10001000451900087F030008071E000800000000C3
:100020000000000000000000000000005F1C00084D
:10003000810300080000000049190008611C000845
:10004000930200089302000893020008930200083C
:10005000930200089302000893020008930200082C
:10006000930200089302000893020008930200081C
:10007000930200089302000893020008930200080C
:100080009302000800000000930200089302000899
:1000900093020008930200089302000893020008EC
:1000A00093020008930200089302000893020008DC
:1000B00093020008DD1C0008930200089302000868
:1000C00093020008930200089302000893020008BC
:1000D00093020008930200089302000893020008AC
:1000E000930200089302000893020008930200089C
:1000F0009302000893020008930200080000000029
:1001000000000000930200080000000093020008B5
:100110009302000800000000930200089302000808
:10012000930200089302000893020008930200085B
:100130009302000800000000000000009302000885
:100140009302000893020008000000000000000075
:10015000000000000000000000000000000000009F
:1001600000000000000000000000000093020008F2
:1001700093020008000000000000000000000000E2
:1001800000000000930200080000000000000000D2
:10019000000000000000000000000000000000005F
:1001A0000000000000000000930200089302000815
:1001B0009302000893020008930200080000000068
:1001C0000000000093020008000000000000000092
:1001D000930200089302000800F002F800F03CF8D7
:1001E0000AA090E8000C82448344AAF10107DA4592
:1001F00001D100F031F8AFF2090EBAE80F0013F0A8
:10020000010F18BFFB1A43F001031847EC2E000042
:100210000C2F0000103A24BF78C878C1FAD85207D2
:1002200024BF30C830C144BF04680C607047000070
:100230000023002400250026103A28BF78C1FBD8EF
:10024000520728BF30C148BF0B6070471FB501F08F
:100250005DFE1FBD10B510BD00F058F81146FFF748
:10026000F5FF01F0E1FD00F076F803B4FFF7F2FFCF
:1002700003BC00F07DF800000948804709480047AA
:10028000FEE7FEE7FEE7FEE7FEE7FEE7FEE7FEE746
:10029000FEE7FEE704480549054A064B70470000A3
:1002A000CD1C0008D9010008D0000020D006002095
:1002B000D0020020D00200204FF0000200B513460B
:1002C00094469646203922BFA0E80C50A0E80C5076
:1002D000B1F12001BFF4F7AF090728BFA0E80C5027
:1002E00048BF0CC05DF804EB890028BF40F8042B20
:1002F00008BF704748BF20F8022B11F0804F18BF8D
:1003000000F8012B7047704770477047754600F042
:100310002BF8AE4605006946534620F00700854697
:1003200018B020B5FFF7B6FFBDE820404FF000063B
:100330004FF000074FF000084FF0000B21F00701CD
:10034000AC46ACE8C009ACE8C009ACE8C009ACE810
:10035000C0098D46704710B50446AFF300802046B3
:10036000BDE81040FFF781BF0048704770000020D3
:1003700001491820ABBEFEE7260002007047FEE7E9
:100380007047002240F6B83306E00021491C89B2CC
:100390009942FBD3521C92B28242F6D3704772B696
:1003A000FEE7000070B5044600F03CF90546601C0D
:1003B00002D004484068044400F034F9401BA042D5
:1003C000FAD370BD000000202DE9F04FDFF8209235
:1003D000002301260324A9F1040B85B00F2709F19E
:1003E000040AABF1040EFAE006FA03F52A407CD0C9
:1003F00091F804C00CF0030CBCF1010F02D0BCF169
:10040000020F26D1D0F808C0CDF800C04FEA430C47
:1004100004FA0CF8CDF810C0DDF800C02CEA080C86
:10042000CDF800C0D1F80C80DDF810C008FA0CF847
:10043000DDF800C048EA0C08C0F80880D0F804C015
:100440002CEA050C0D79C5F300159D4045EA0C0515
:1004500045600D79ED43AD070ED0C5684FEA4308FE
:1004600004FA08FC25EA0C05D1F808C00CFA08FCCF
:100470004CEA050CC0F80CC00D7905F00305022DFF
:1004800016D1DD0800EB850CCDF808C0DCF8208023
:100490005D074FEAD56C07FA0CF528EA05080D69E7
:1004A00005FA0CF5DDF808C045EA0805CCF820503F
:1004B00005684FEA430CCDF808C004FA0CFC25EAA5
:1004C0000C0591F804C00CF00308DDF808C008FA28
:1004D0000CF848EA0508C0F800804D6815F4403F64
:1004E0007CD0444DD5F860C000E077E04CF0010CC2
:1004F000C5F860C02D6E23F0030C05F001050095D2
:100500003D4D65440295AD684FEA837C4FEA1C7807
:1005100007FA08FC25EA0C05B0F1904F06D0DFF889
:10052000DCC0604505D14FF0010C20E04FF0000C1D
:100530001DE0DFF8CCC0604502D14FF0020C16E0A0
:10054000DFF8C0C0604502D14FF0030C0FE0DFF8C8
:10055000B8C0604502D14FF0040C08E0DFF8ACC031
:10056000604502D14FF0050C01E04FF0060C0CFA8B
:1005700008FC4CEA050C029DC5F808C0D9F80050EB
:10058000CC46D1F8048095435FEAC82800D51543CE
:10059000CCF80050DAF80050D446D1F804809543E6
:1005A0005FEA882800D51543CCF80050DBF80050EE
:1005B000DC46D1F8048095435FEA883800D51543BE
:1005C000CCF80050DEF80050F446D1F80480954392
:1005D0005FEAC83800D51543CCF800505B1C0A68A8
:1005E00032FA03F57FF400AF05B0BDE8F08F0000EC
:1005F00008040140001002400000014000040048CF
:1006000000080048000C0048001000480014004892
:100610000069084000D0012070470AB1816170472D
:100620008162704701488068704700000000002028
:1006300002488168426811448160704700000020D0
:1006400010B50024032000F073F80F2000F008F824
:1006500008B1012401E000F025F8204610BD00009B
:1006600070B50E4E05460024706898B14FF47A714B
:10067000B1FBF0F00A490968B1FBF0F000F0FCFBB7
:1006800040B9102D06D200222946501E00F030F845
:10069000356000E00124204670BD0000000000200D
:1006A0000C0000200A4882B0016E41F00101016691
:1006B000016E01F001010091816D41F08051816571
:1006C000806D00F08050009002B000F0A1B80000F2
:1006D00000100240002809DB00F01F0201219140B8
:1006E0004009800000F1E020C0F8001170470000D0
:1006F000F0B40E4B1B680C46C3F30223C3F107058D
:10070000042D00D90425191D072901D2002300E07A
:10071000DB1E012606FA05F1491E214099409E4044
:10072000761E16403143F0BC01F06EBB0CED00E0CC
:10073000064900F0070208684FF6FF03184040EA38
:100740000220034A10430860704700000CED00E0EF
:100750000000FA052B492C4B0A6832214A432B49E9
:1007600040B1B0F5007F086829D020F4C06040F4A3
:1007700080602CE00868C0F34120022804D051F8C2
:10078000800F20F4807022E0D1F8800020F4807087
:10079000C1F88000086820F4C06040F40070086070
:1007A000B2FBF3F0401C00E0401E4A69520501D53F
:1007B0000028F9D1486940050AD503207047C0F3E5
:1007C0004120022806D051F8800F40F48070086064
:1007D00000207047D1F8800040F48070C1F880009C
:1007E000086820F4C06040F400700860B2FBF3F0C9
:1007F000401C00E0401E4A695205DBD50028F9D1B3
:10080000D8E700000C00002040420F0000700040BC
:100810000248816841F48041816070470070004067
:100820002DE9F0470E4605004FF0000725D0DFF810
:10083000AC81D8F8000000F00F00B0420CD2D8F81C
:10084000001021F00F013143C8F80010D8F8000063
:1008500000F00F00B04210D12968614CC80741F286
:10086000883A5AD06868DFF87C91032808D00228BB
:1008700020682DD0400500282CDB0120BDE8F08742
:1008800020688001F9D5E06800F00302E068C0F359
:100890000310401C032A19D0534A00BFB2FBF0F0EA
:1008A000E268C2F306225043E268C2F34162521C7E
:1008B0005200B0FBF2F0484517D9A06810F0F00FD5
:1008C0000CD0880711D5A86840B10EE0474AE5E78B
:1008D0008003D0E700F092F8484506D9A06820F0E0
:1008E000F00040F08000A0608027A068696820F0D8
:1008F00003000843A060FFF795FE814606E000BFB5
:10090000FFF790FEA0EB090151453AD8A06869684D
:1009100000F00C00B0EB810FF2D12868810714D5EC
:10092000400703D5A06840F4E060A0602878000785
:1009300005D5A06820F4605040F4E060A060A06895
:10094000A96820F0F000084304E0802F03D1A068DC
:1009500020F0F000A060D8F80010404601F00F0130
:10096000B14216D9016821F00F0131430160FFF750
:1009700059FE074607E000BFFFF754FEC11B514573
:1009800001D903207AE7D8F8000000F00F00B04248
:10099000F2D12878400705D5A068E96820F4E06026
:1009A0000843A0602878000706D5A068296920F4CC
:1009B000605040EAC100A06000F020F8A1680C4A35
:1009C000C1F30311515C01F01F01C84009490860DF
:1009D00009480068BDE8F047FFF742BE002002402A
:1009E0000010024000B4C4040024F40000366E017C
:1009F000161F00080C00002000000020184910B548
:100A00008868C0F381021748012A0BD08A68164B08
:100A1000C2F38102022A06D08A68C2F38102032A45
:100A200003D0002010BD184610BDCA6802F00304B0
:100A3000CA68C2F30312521C032C02D0B0FBF2F0BE
:100A400001E0B3FBF2F0CA68C968C2F30622504362
:100A5000C1F34161491C4900B0FBF1F010BD000039
:100A6000001002400024F40000366E012DE9F84326
:100A700004007AD02078FA4DC00747D0A868E9680A
:100A800000F00C0001F003010C2802D0082817D058
:100A900001E0032914D06068B0F5803F17D0B0F5AD
:100AA000A02F286817D020F480302860286820F410
:100AB000802028606068E0B1FFF7B4FD064614E0CE
:100AC0002868800322D560680028D2D01EE02868FC
:100AD00040F48030EDE740F480202860F7E700BF65
:100AE000FFF7A0FD801B642870D828688003F7D525
:100AF0000CE0FFF797FD064605E000BFFFF792FD0B
:100B0000801B6428F0D828688003F7D420788007F9
:100B10004CD5A868E96800F00C0001F003010C282E
:100B200002D004280DD001E002290AD0E068002894
:100B300028682BD040F480702860FFF773FD0646CC
:100B400019E02868400502D5E068002891D068685F
:100B5000217C20F0FE4040EA01606860C1480068E6
:100B6000FFF77EFD002800D120E076E1FFF75AFD77
:100B7000801B0228B8D828684005F7D56868217C12
:100B800020F0FE4040EA016068600FE020F48070D1
:100B90002860FFF747FD064605E000BFFFF742FD6E
:100BA000801B0228A0D828684005F7D420780007C9
:100BB00029D560690028D5F8940013D040F00100D1
:100BC000C5F89400FFF72EFD064606E090E000BF52
:100BD000FFF728FD801B022886D8D5F894008007EF
:100BE000F6D510E020F00100C5F89400FFF71AFDDB
:100BF000064604E0FFF716FD801B022878D8D5F8DA
:100C000094008007F6D42078400761D5A86D0026AF
:100C1000C00008D4A86D40F08050A865A86D0126DA
:100C200000F08050009090480168C90511D4016817
:100C3000804641F480710160FFF7F4FC074604E050
:100C4000FFF7F0FCC01B022852D8D8F80000C005FE
:100C5000F6D5A068012815D00528D5F8900016D043
:100C600020F00100C5F89000D5F8900020F00400B5
:100C7000C5F89000A06841F28838B8B1FFF7D2FCFF
:100C800007460EE0D5F8900040F00100F0E740F094
:100C90000400C5F89000F5E7FFF7C4FCC11B41450F
:100CA00026D8D5F890008007F6D50CE0FFF7BAFCFF
:100CB000074604E0FFF7B6FCC11B414518D8D5F83C
:100CC00090008007F6D41EB1A86D20F08050A86572
:100CD0002078800629D5A0690028D5F8980013D07F
:100CE00040F00100C5F89800FFF79CFC064606E0BE
:100CF00077E000BFFFF796FC801B022877D8D5F875
:100D000098008007F6D510E020F00100C5F89800A3
:100D1000FFF788FC064604E0FFF784FC801B0228EE
:100D200065D8D5F898008007F6D4E069F0B3A968D3
:100D3000C1F38101032961D00228286820F0807066
:100D400028600BD0E86820F00300E860E8684749B5
:100D50000840E860FFF766FC04464BE0FFF762FCE2
:100D6000064604E0FFF75EFC801B02283FD8286897
:100D70008001F7D4F4E908016FF00F0202EB0111D2
:100D80000843218A5204490802EB4151A26841EA12
:100D900002210843217D4FF07E42490802EB416168
:100DA0000843217B40EAC160E96800E062E0304A24
:100DB00011400843E860286840F080702860E868C7
:100DC00040F08070E860FFF72DFC044605E000BFAE
:100DD000FFF728FC001B022809D828688001F7D5F6
:100DE00048E004E0FFF71EFC001B022802D90320A4
:100DF000BDE8F88328688001F4D43BE00128F7D0EF
:100E0000E868226A00F00301914226D1616A00F08D
:100E1000F0020901103991421FD1A26A00F4FE418B
:100E2000B1EB022F19D194F82C2000F07841B1EBEE
:100E3000C26F12D1218E00F4C00249084905A1F504
:100E40000011914209D194F8341000F0C0604908B3
:100E50004906A1F1007181420CD00120C8E70000D1
:100E6000001002400000002000700040FFFFEEFE76
:100E70000C809F010020BBE710B5401EB0F1807FC1
:100E800001D3012010BD4FF0E02460610F216017F5
:100E900000F0BAFF0020A06107202061002010BDF3
:100EA000704770477047704770477047F0B590F8CB
:100EB0003C20012A3AD0012580F83C50022280F8DB
:100EC0003D2003685A689C68194E1A4FB34201D0FE
:100ED000BB4204D122F4700C4A6842EA0C02DFF8EB
:100EE00058C002EA0C02D1F800C04CEA020CC3F868
:100EF00004C00268B2420DD0B2F1804F0AD00F4B4D
:100F00009A4207D00E4B9A4204D0BA4202D00D4BFF
:100F10009A4204D1896824F080031943916080F8D3
:100F20003D50002180F83C100846F0BD0220F0BD85
:100F3000002C0140003401408FFFFFFD0004004001
:100F40000008004000400140704710B5040003D085
:100F500094F83D0010B107E0012010BD002084F896
:100F60003C00204600F022F8022084F83D00211DBC
:100F7000206800F0B9FE012084F8480084F83E00A3
:100F800084F83F0084F8400084F8410084F842006F
:100F900084F8430084F8440084F8450084F846004F
:100FA00084F8470084F83D00002010BD08B50068B3
:100FB0000B49884212D10B48816D41F002018165D5
:100FC000806D002200F00200009011461D20FFF706
:100FD0008FFBBDE808401D20FFF77CBB08BD00006B
:100FE000000400400010024090F83D10012901D09B
:100FF00001207047022180F83D100168CA6842F064
:101000000102CA600068104988420ED0B0F1804FDA
:101010000BD00E49884208D00D49884205D00D49B1
:10102000884202D00C49884207D181680B4A11409E
:10103000062906D0B1F5803F03D0016841F00101D7
:101040000160002070470000002C014000040040B7
:10105000000800400034014000400140070001004A
:1010600070B5044690F83C000025012814D00126F4
:1010700084F83C60022084F83D0022689068364B7A
:10108000184020F47F409060086870282ED010DC53
:1010900010F00F0F03D021E04FF0020070BD4FEAB7
:1010A0002012072A1AD2DFE802F0525252524A386E
:1010B00040002A4BC21A984249D009DCB0F5805F43
:1010C0000DD0B0F5005F1CD0B0F1101F06D13EE08E
:1010D000102A3CD0202A3AD0502A38D0012584F852
:1010E0003D60002084F83C00284670BDCB68D1E903
:1010F0000121206800F050FE2068816841F07701EE
:1011000009E0CB68D1E90121206800F045FE2068A4
:10111000816841F480418160E1E7CA6849682068DC
:1011200000F04EFE5021206806E0CA684968206839
:1011300000F057FE6021206800F038FECFE7CA6853
:101140004968206800F03CFE40212068F4E72268EE
:1011500001461046F0E7000088FFCEFF2000100097
:10116000704770B50446006801694FF00005C94337
:10117000890715D4C168C943890711D4E91E0161E3
:1011800001202077206880698007204602D0FFF781
:10119000E7FF04E000F0E3F8204600F0E1F82577EF
:1011A00020680169C943490717D4C168C943490781
:1011B00013D46FF004010161022020772068806958
:1011C00010F4407F204602D0FFF7CAFF04E000F091
:1011D000C6F8204600F0C4F8257720680169C943A5
:1011E000090716D4C168C943090712D46FF0080172
:1011F0000161042020772068C0698007204602D062
:10120000FFF7AEFF04E000F0AAF8204600F0A8F8CF
:10121000257720680169C943C90617D4C168C94345
:10122000C90613D46FF010010161082020772068EF
:10123000C06910F4407F204602D0FFF791FF04E020
:1012400000F08DF8204600F08BF8257720680169C2
:10125000C943C90708D1C168C943C90704D1891E58
:101260000161204600F07EF820680169C943090643
:1012700009D4C168C943090605D46FF08001016132
:101280002046FFF70EFE20680169C943C90509D44D
:10129000C168C943090605D46FF480710161204615
:1012A000FFF7FEFD20680169C943490609D4C168FA
:1012B000C943490605D46FF040010161204600F0A2
:1012C0009BF820680169C943890609D4C168C943EC
:1012D000890605D46FF0200101612046FFF7E2FD89
:1012E00020680169C943C90209D4C168C943C90258
:1012F00005D46FF4801101612046FFF7D5FD206809
:101300000169C943890209D4C168C943890205D466
:101310006FF4001101612046FFF7C5FD20680169E7
:10132000C943490209D4C168C943490205D46FF4CD
:10133000800101612046FFF7B8FD20680169C943BB
:1013400009020BD4C168C943090207D46FF4000134
:1013500001612046BDE87040FFF7F6BD70BD7047E3
:101360007047000070B50068204988423DD1204D8B
:1013700001212846FFF74CF900B101201D4C022144
:1013800020702846FFF744F900B10120E0700421E5
:101390002846FFF73DF900B10120A07101214FF06F
:1013A0009040FFF735F900B1012060720020012361
:1013B00000EB400211194D7825B1012D06D0022D08
:1013C0000FD108E0A25C62B94B700AE0A25C42B99E
:1013D0008B70022204E0A25C012A02D100228A70F2
:1013E0004A70401CC0B20428E2D370BD0004004023
:1013F00000040048640000207047FEE700B585B097
:1014000014216846FEF758FF4FF6FF700090002049
:101410000321CDE90201019069460248FEF7D4FF9D
:1014200005B000BD0008004800B585B0142168462D
:10143000FEF742FF4FF6FF7000900120019003205D
:1014400003900020029069460248FEF7BDFF05B0F8
:1014500000BD00000008004870B500240646214683
:10146000204600F003F900F041F94FF4963530467C
:1014700000F010F9641CAC42F9D370BD30B587B0F0
:1014800014216846FEF718FF1E48C16C41F00401A4
:10149000C164C16C01F004010591C16C41F001010E
:1014A000C164C16C01F001010591C16C41F0020100
:1014B000C164C06C012500F0020005904FF4487033
:1014C000CDE9000500240394694602940E48FEF716
:1014D0007BFF280203940090CDE901544FF0904423
:1014E00069462046FEF770FFFFF79EFFA06940F4B3
:1014F0008070A06104481830016841F408710160EF
:1015000007B030BD0010024000040048203AD2B2BB
:10151000034B02EB420203EB021200F019B8000089
:10152000261F0008F0B50E460746002540F23F147E
:1015300007E021463846FFF7E9FF103C6D1CA4B2D6
:10154000761C3278002A01D0142DF2D3F0BD0000B1
:101550002DE9F04791468A460026044600F086F8B9
:10156000DFF84080012700BF00F0C0F85FF0000501
:1015700039F8160007FA05F10842404601D14088C3
:1015800000E0008800F086F86D1C102DF0D3641C7C
:10159000E4B25146204600F069F8761C182EE3D3D9
:1015A000BDE8F0871000002010B5FFF767FF0020AE
:1015B00000F014F8084CA080A088A0F50241303952
:1015C00006D000F04BFA002000F008F8A08010BD13
:1015D00000F0BBF9F7E700001000002070B51D49CE
:1015E0000A6842F400720A600A6842F480720A6073
:1015F000184C103C226842F020022260164A10600B
:10160000086840F02000086000BF00BF00BF2068ED
:1016100040F020002060206840F480702060FFF7D8
:10162000EDFE4FF09041886A40F48070886200BF00
:1016300000BF00BF0848001F006885B2886940F4F9
:1016400080708861FFF7F0FE206840F40070206031
:10165000284670BD280400481408004801B5BDF8AC
:1016600000000149488008BD1000002010B50C465C
:101670000146202000F068F82146BDE810402120F6
:1016800000F062B801B5BDF800000149088008BD4E
:1016900010000020134A116841F4007111601149D3
:1016A00010390B6843F480730B600B6843F0200320
:1016B0000B600D4B1860106840F02000106000BFF8
:1016C00000BF00BF086840F020000860086840F4D0
:1016D0008070086000BF00BF00BF086840F4007061
:1016E0000860704728040048140800481449086836
:1016F00040F400700860086840F48070086010488A
:101700001038026842F0200202600E4B22221A605A
:101710000A6842F020020A6000BF00BF00BF0168F3
:1017200041F020010160016841F48071016000BF57
:1017300000BF00BF016841F4007101607047000004
:101740002804004814080048184B10B51A6842F4E1
:1017500000721A601A6842F480721A60134A103AD2
:10176000146844F020041460114C2060186840F0A4
:101770002000186000BF00BF00BF106840F02000CC
:101780001060106840F4807010602160186840F0AC
:101790002000186000BF00BF00BF106840F02000AC
:1017A0001060106840F48070106010BD280400487C
:1017B000140800482DE9F04F87B014216846FEF761
:1017C0007BFD4248C16C41F00401C164C16C01F071
:1017D00004010591C16C41F02001C164C16C01F0AC
:1017E00020010591C16C41F00101C164C16C01F09F
:1017F00001010591C16C41F00201C164C16C01F0AD
:1018000002010591C16C41F00801C164C06CDFF8B0
:10181000C08000F00800059001224FF47F4140464F
:10182000FEF7FBFE0022FF214046FEF7F6FE4FF4D6
:1018300080764FF09049002231464846FEF7EDFE93
:10184000DFF890A0002204215046FEF7E6FEDFF804
:1018500088B04FF44877002239465846FEF7DDFE3F
:101860004FF6FF70009001250024CDE90154694630
:1018700040460394FEF7A8FDCDE90054694648466A
:101880000295FEF7A1FD07208DE831006946584614
:10189000FEF79AFD0096CDE9015469464846039447
:1018A000FEF792FD04200090CDE9015469465046B0
:1018B0000394FEF789FD0097CDE901546946584627
:1018C0000394FEF781FD07B0BDE8F08F00100240E1
:1018D00000080048000C00480004004810B588B01B
:1018E00000241748009401940294039404940594EE
:1018F0001249069401605021C0E9011442F21071AE
:10190000C0E903148461FFF720FB08B1FEF747FD2F
:101910004FF48050009069460948FFF7A1FB08B1D9
:10192000FEF73DFD049404A905480694FFF7BEFAAE
:10193000002801D0FEF733FD08B010BD00040040C0
:1019400018000020FEE7FEE7704730B501210020B7
:10195000FFF7FAFE4FF47A70FEF713FD0021012025
:10196000FFF7F2FE41F290711020FFF7EDFE4FF409
:101970001C516020FFF7E8FE01216120FFF7E4FE23
:1019800002214620FFF7E0FE48F210011320FFF786
:10199000DBFE48F2FE011220FFF7D6FE4FF4A061F5
:1019A0000220FFF7D1FE41F230010320FFF7CCFE09
:1019B00040F2033421463020FFF7C6FE2146312095
:1019C000FFF7C2FE21463220FFF7BEFEE51E294684
:1019D0003320FFF7B9FE03213420FFF7B5FE21467F
:1019E0003520FFF7B1FE14213620FFF7ADFE21466A
:1019F0003720FFF7A9FE21463820FFF7A5FE214634
:101A00003920FFF7A1FE29463A20FFF79DFE03216A
:101A10003B20FFF799FE21463C20FFF795FE4FF44F
:101A2000A0513D20FFF790FE4FF400719220FFF788
:101A30008BFE21469320FFF787FE40F60D01902094
:101A4000FFF782FE41F218010320FFF77DFEBDE89B
:101A5000304040F273110720FFF776BE10B543F215
:101A60000801E320FFF770FE1221E720FFF76CFE6C
:101A700041F23121EF20FFF767FE00210120FFF73F
:101A800063FE4FF4E0610220FFF75EFE41F2300199
:101A90000320FFF759FE00210420FFF755FE40F216
:101AA00007210820FFF750FE00210920FFF74CFE18
:101AB00000210A20FFF748FE00210C20FFF744FE1A
:101AC00000210D20FFF740FE00210F20FFF73CFE14
:101AD00000211020FFF738FE07211120FFF734FE08
:101AE00000211220FFF730FE00211320FFF72CFE0B
:101AF000C820FEF757FC41F290611020FFF724FE4A
:101B000040F227211120FFF71FFE3220FEF74AFC8A
:101B10001D211220FFF718FE3220FEF743FC4FF480
:101B200000611320FFF710FE14212920FFF70CFE9F
:101B30000B212B20FFF708FE3220FEF733FC00219B
:101B40002020FFF701FE00212120FFF7FDFD0721E6
:101B50003020FFF7F9FD40F207713120FFF7F4FD67
:101B600006213220FFF7F0FD40F204713520FFF727
:101B7000EBFD41F604713620FFF7E6FD0421372026
:101B8000FFF7E2FD00213820FFF7DEFD40F206718D
:101B90003920FFF7D9FD40F201713C20FFF7D4FD59
:101BA0000F213D20FFF7D0FD00215020FFF7CCFD95
:101BB000EF215120FFF7C8FD00215220FFF7C4FD9F
:101BC00040F23F115320FFF7BFFD4FF41C5160203E
:101BD000FFF7BAFD01216120FFF7B6FD00216A2061
:101BE000FFF7B2FD00218020FFF7AEFD002181202C
:101BF000FFF7AAFD00218220FFF7A6FD0021832028
:101C0000FFF7A2FD00218420FFF79EFD0021852023
:101C1000FFF79AFD10219020FFF796FD00219220FA
:101C2000FFF792FD03219320FFF78EFD4FF488719B
:101C30009520FFF789FD00219720FFF785FD002102
:101C40009820FFF781FD41F218010320FFF77CFD8A
:101C5000BDE8104040F273110720FFF775BD7047D3
:101C6000FEF7E6BC10B594B038216846FEF724FBB9
:101C700014210EA8FEF720FB4FF40070FEF76AFD5A
:101C8000012000900004019002200324CDE9070404
:101C90001421CDE90A100C900D9009946846FEF7C6
:101CA000E5FE08B172B6FEE70F20CDE90E04002074
:101CB00010901190129002210EA8FEF7B1FD00289D
:101CC00001D072B6FEE714B010BD000002480168F2
:101CD00041F470010160704788ED00E00148FFF7B2
:101CE00040BA0000180000202DE9F0430268234BA1
:101CF000234D244E244C4FF08049984207D048454C
:101D000005D0A84203D0B04201D0A04203D122F0B6
:101D100070074A683A431D4FDFF874C0DFF87480DB
:101D200098420DD048450BD0A84209D0B04207D008
:101D3000A04205D0B84203D0604501D0404503D150
:101D400022F44075CA682A434D6922F080022A4372
:101D500002608A68C2620A688262984207D0A04222
:101D600005D0B84203D0604501D0404501D1096992
:101D7000016301214161BDE8F0830000002C0140B6
:101D800000040040000800400034014000400140D1
:101D9000004401400048014010B5846842EA032233
:101DA00024F47F440A432243826010BD8268034BBF
:101DB0001A400A4342F00701816070478FFFCFFF4E
:101DC00010B5036A046A24F001040462846924F0F3
:101DD000F00444EA021423F00A020A438461026216
:101DE00010BD10B5036A23F0100303628369046A0F
:101DF00023F4704343EA023224F0A00343EA0111C2
:101E00008261016210BDFEE70907090E002804DBAC
:101E100000F1E02080F80014704700F00F0000F19E
:101E2000E02080F8141D7047FEF70AFCFFF71AFF48
:101E3000FFF7C0FCFFF752FDFFF7B6FB4FF4FC6461
:101E40002046FFF709FB2046FFF708FC0020FFF7BC
:101E500019FC1448FFF7C8F82046FFF7FDFA12A155
:101E60006020FFF75FFB144CA078012803D113A179
:101E70009020FFF757FB6079012803D114A190202F
:101E8000FFF750FB207A012803D116A19020FFF71D
:101E900049FBE07A0128E7D117A19020FFF742FB28
:101EA000E2E70000180000202020202068656C6C0C
:101EB0006F5F572020200000640000202020202099
:101EC0006B6579315F446F776E2020200000000041
:101ED000202020206B6579325F446F776E202020B0
:101EE00000000000202020206B6579335F446F776D
:101EF0006E20202000000000202020206B65793417
:101F00005F446F776E202020000000004FF040708B
:101F1000E1EE100A7047000000000000000001021E
:101F2000030406070809000000000000000000008C
:101F300000000000000000000000000000000000A1
:101F40000000000000000000000000000000000091
:101F5000000000000000000080018001800180017D
:101F60008001800180018001800180018001800169
:101F700080010000000080018001000000000000DE
:101F800000000000000000000000CC00CC00CC00ED
:101F9000CC00CC00CC0000000000000000000000DD
:101FA0000000000000000000000000000000000031
:101FB0000000000000000000000000000000000021
:101FC0000000600C600C600C30063006FE1FFE1F27
:101FD000300638071803FE1FFE1F180318038C0174
:101FE0008C018C01000000008000E003F80F9C0EC3
:101FF0008C1C8C188C009800F801E007800E801C67
:102000008C188C189C18B80CF00FE003800080002E
:102010000000000000000000000000000E181B0C73
:10202000110C11061106110311039B018E01C0381A
:10203000C06C60446044304430441844186C0C3820
:102040000000000000000000E001F003380718065F
:1020500018063003F001F000F8009C310E33061E24
:10206000061C061C063FFC73F02100000000000067
:10207000000000000000000000000C000C000C003C
:102080000C000C000C00000000000000000000002C
:102090000000000000000000000000000000000040
:1020A0000000000000000000000200038001C000EA
:1020B000C0006000600030003000300030003000B0
:1020C00030003000300060006000C000C0008001BF
:1020D000000300020000000020006000C00080013A
:1020E000800100030003000600060006000600064B
:1020F0000006000600060003000380018001C00006
:10210000600020000000000000000000000000004F
:102110000000C000C000D806F807E001300338070F
:1021200000000000000000000000000000000000AF
:10213000000000000000000000000000000000009F
:10214000000080018001800180018001FC3FFC3F94
:1021500080018001800180018001000000000000FA
:10216000000000000000000000000000000000006F
:10217000000000000000000000000000000000005F
:10218000000000000000000080018001000100014B
:1021900080000000000000000000000000000000BF
:1021A0000000000000000000000000000000E00748
:1021B000E007000000000000000000000000000038
:1021C000000000000000000000000000000000000F
:1021D00000000000000000000000000000000000FF
:1021E0000000000000000000C000C000000000006F
:1021F0000000000000000000000C000C00060006BB
:1022000000060003000300038003800180018001B9
:10221000C000C000C00060006000000000000000BE
:102220000000000000000000E003F007380E180C6A
:102230000C180C180C180C180C180C180C180C187E
:102240000C18180C380EF007E00300000000000026
:10225000000000000000000000018001C001F0014A
:102260009801880180018001800180018001800146
:1022700080018001800180018001000000000000D9
:102280000000000000000000E003F80F180C0C181C
:102290000C1800180018000C000600038001C00094
:1022A000600030001800FC1FFC1F00000000000050
:1022B0000000000000000000E001F807180E0C0C00
:1022C0000C0C000C0006C003C007000C001800181E
:1022D0000C180C18180CF807E003000000000000B0
:1022E0000000000000000000000C000E000F000FB6
:1022F000800DC00C600C600C300C180C0C0CFC3FFA
:10230000FC3F000C000C000C000C00000000000062
:102310000000000000000000F80FF80F180018007F
:102320000C00EC03FC071C0E001C00180018001821
:102330000C181C0C180EF807E00300000000000049
:102340000000000000000000C007F00F381C181843
:1023500018000C00CC03EC0F3C0E1C1C0C180C18C5
:102360000C18181C380EF007E003000000000000F5
:102370000000000000000000FC1FFC1F000C000615
:102380000006000380038001C001C000E00060007F
:1023900060007000300030003000000000000000DD
:1023A0000000000000000000E003F007380E180CE9
:1023B000180C180C3806F007F007180C0C180C183D
:1023C0000C180C18380CF80FE00300000000000097
:1023D0000000000000000000E003F007380E1C0CB5
:1023E0000C180C180C181C1C381EF81BE0190018CF
:1023F000000C000C1C0EF807F001000000000000AB
:1024000000000000000000000000000000000000CC
:1024100000008001800100000000000000000000BA
:1024200000000000000080018001000000000000AA
:10243000000000000000000000000000000000009C
:10244000000080018001000000000000000000008A
:1024500000000000000080018001000100018000F8
:10246000000000000000000000000000000000006C
:102470000000000000000010001C800FE003F800C6
:102480001800F800E003800F001C0010000000009E
:10249000000000000000000000000000000000003C
:1024A000000000000000F81F000000000000F81FFE
:1024B000000000000000000000000000000000001C
:1024C000000000000000000000000000000000000C
:1024D00000000000000008003800F001C007001FE5
:1024E0000018001FC007F0013800080000000000BD
:1024F0000000000000000000E003F80F180C0C18AA
:102500000C180018000C000600038001C000C00079
:10251000C00000000000C000C0000000000000007B
:1025200000000000000000000000E0071818042070
:10253000C229224A114409440944094409221113B9
:10254000E20C024004201818E00700000000000020
:10255000000000000000000080038003C006C006E9
:10256000C006600C600C301830183018F83FF83F87
:102570001C700C600C6006C006C00000000000006B
:102580000000000000000000FC03FC0F0C0C0C1805
:102590000C180C180C0CFC07FC0F0C180C300C3031
:1025A0000C300C300C18FC1FFC0700000000000071
:1025B0000000000000000000C007F01F38381C3089
:1025C0000C70066006000600060006000600060005
:1025D00006600C701C30F01FE007000000000000D7
:1025E0000000000000000000FE03FE0F060E0618AB
:1025F0000618063006300630063006300630063043
:1026000006180618060EFE0FFE030000000000006C
:102610000000000000000000FC3FFC3F0C000C002C
:102620000C000C000C00FC1FFC1F0C000C000C002C
:102630000C000C000C00FC3FFC3F00000000000000
:102640000000000000000000F83FF83F18001800EC
:10265000180018001800F81FF81F180018001800BC
:1026600018001800180018001800000000000000F2
:102670000000000000000000E00FF83F3C780E6012
:1026800006E007C00300030003FE03FE03C007C00B
:1026900006C00EC03CF0F83FE00F00000000000054
:1026A00000000000000000000C300C300C300C303A
:1026B0000C300C300C30FC3FFC3F0C300C300C303C
:1026C0000C300C300C300C300C30000000000000DE
:1026D00000000000000000008001800180018001F6
:1026E00080018001800180018001800180018001E2
:1026F0008001800180018001800100000000000055
:1027000000000000000000000006000600060006B1
:102710000006000600060006000600060006000689
:10272000180618063807F003E0010000000000005A
:10273000000000000000000006300618060C060627
:1027400006038601C60066007600DE008E010603E1
:102750000606060C061806300660000000000000A1
:102760000000000000000000180018001800180009
:102770001800180018001800180018001800180099
:10278000180018001800F81FF81F000000000000D3
:1027900000000000000000000EE01EF01EF01EF021
:1027A00036D836D836D836D866CC66CC66CCC6C6CF
:1027B000C6C6C6C6C6C686C386C3000000000000E3
:1027C00000000000000000000C301C303C303C30A9
:1027D0006C306C30CC30CC308C310C330C330C364C
:1027E0000C360C3C0C3C0C380C3000000000000097
:1027F0000000000000000000E007F81F1C380E7009
:10280000066003C003C003C003C003C003C003C00D
:1028100006600E701C38F81FE00700000000000082
:102820000000000000000000FC0FFC1F0C380C3002
:102830000C300C300C300C18FC1FFC070C000C008A
:102840000C000C000C000C000C000000000000004C
:102850000000000000000000E007F81F1C380E70A8
:10286000066003E003C003C003C003C003C007E069
:1028700006630E3F1C3CF83FE0F700C0000000007C
:102880000000000000000000FE0FFE1F06380630AA
:10289000063006300638FE1FFE0706030606060C45
:1028A000061806180630063006600000000000001A
:1028B0000000000000000000E003F80F1C0C0C18E2
:1028C0000C180C001C00F803E00F001E0038063046
:1028D00006300E301C1CF80FE0070000000000005E
:1028E0000000000000000000FE7FFE7F80018001EC
:1028F00080018001800180018001800180018001D0
:102900008001800180018001800100000000000042
:1029100000000000000000000C300C300C300C30C7
:102920000C300C300C300C300C300C300C300C30C7
:102930000C300C301818F81FE007000000000000F1
:102940000000000000000000036006300630063082
:102950000C180C180C18180C180C380E3006300611
:10296000700760036003C001C001000000000000A8
:1029700000000000000000000360C361C361C36188
:102980006633663366336633663366336C1B6C1BA3
:102990006C1B2C1A3C1E380E380E00000000000084
:1029A00000000000000000000FE00C70183030182C
:1029B000700C600EC00780038003C003E006700C3B
:1029C000301C18180C300E6007E0000000000000FA
:1029D000000000000000000003C006600C301C383E
:1029E0003818300C6006E007C003800180018001C8
:1029F0008001800180018001800100000000000052
:102A00000000000000000000FC7FFC7F0060003040
:102A10000018000C000600038001C00060003000B8
:102A200018000C000600FE7FFE7F00000000000082
:102A30000000000000000000E003E0036000600010
:102A40006000600060006000600060006000600086
:102A50006000600060006000600060006000600076
:102A6000E003E00300000000300030006000600080
:102A70006000C000C000C000C00180018001800172
:102A80000003000300030006000600000000000031
:102A90000000000000000000E003E003000300036A
:102AA000000300030003000300030003000300030E
:102AB00000030003000300030003000300030003FE
:102AC000E003E003000000000000C001C00160035B
:102AD0006003600330063006180C180C000000007C
:102AE00000000000000000000000000000000000E6
:102AF00000000000000000000000000000000000D6
:102B000000000000000000000000000000000000C5
:102B10000000000000000000FFFFFFFF00000000B9
:102B200000000000000000000C000C000C000C0075
:102B30000C000C000000000000000000000000007D
:102B40000000000000000000000000000000000085
:102B50000000000000000000000000000000000075
:102B60000000F003F8071C0C0C0C000FF00FF80C21
:102B70000C0C0C0C1C0FF80FF018000000000000EB
:102B800000000000000000001800180018001800E5
:102B90001800D803F80F380C181818181818181837
:102BA00018181818380CF80FD8030000000000009F
:102BB0000000000000000000000000000000000015
:102BC0000000C003F007300E180C180018001800A1
:102BD0001800180C300EF007C003000000000000C1
:102BE0000000000000000000001800180018001885
:102BF0000018C01BF01F301C1818181818181818C7
:102C000018181818301CF01FC01B0000000000002E
:102C100000000000000000000000000000000000B4
:102C20000000C003F00F300C1818F81FF81F180030
:102C300018003818301CF00FC0070000000000001A
:102C40000000000000000000800FC00FC000C000A6
:102C5000C000F007F007C000C000C000C000C00006
:102C6000C000C000C000C000C000000000000000A4
:102C70000000000000000000000000000000000054
:102C80000000E00DF80F180E0C0C0C0C0C0C0C0CCA
:102C90000C0C0C0C180EF80FE00D000C0C0C1C06A4
:102CA000F807F001000000001800180018001800D4
:102CB0001800D807F80F381C181818181818181802
:102CC0001818181818181818181800000000000014
:102CD0000000000000000000C000C0000000000074
:102CE0000000C000C000C000C000C000C000C000A4
:102CF000C000C000C000C000C00000000000000014
:102D00000000000000000000C000C0000000000043
:102D10000000C000C000C000C000C000C000C00073
:102D2000C000C000C000C000C000C000C000C000A3
:102D3000F8007800000000000C000C000C000C00F3
:102D40000C000C0C0C060C038C01CC006C00FC007D
:102D50009C018C030C030C060C0C0000000000000E
:102D60000000000000000000C000C000C000C00063
:102D7000C000C000C000C000C000C000C000C00053
:102D8000C000C000C000C000C00000000000000083
:102D90000000000000000000000000000000000033
:102DA00000007C3CFF7EC7E383C183C183C183C134
:102DB00083C183C183C183C183C1000000000000BF
:102DC0000000000000000000000000000000000003
:102DD00000009807F80F381C181818181818181839
:102DE00018181818181818181818000000000000F3
:102DF00000000000000000000000000000000000D3
:102E00000000C003F00F300C181818181818181804
:102E100018181818300CF00FC00300000000000054
:102E200000000000000000000000000000000000A2
:102E30000000D803F80F380C1818181818181818AC
:102E400018181818380CF80FD803180018001800B4
:102E50001800180000000000000000000000000042
:102E60000000C01BF01F301C18181818181818186C
:102E700018181818301CF01FC01B00180018001874
:102E80000018001800000000000000000000000012
:102E90000000B007F0037000300030003000300058
:102EA0003000300030003000300000000000000032
:102EB0000000000000000000000000000000000012
:102EC0000000E003F003380E180C3800F003C007D0
:102ED000000C180C380EF007E003000000000000A2
:102EE000000000000000000000008000C000C000E2
:102EF000C000F007F007C000C000C000C000C00064
:102F0000C000C000C000C007800700000000000033
:102F100000000000000000000000000000000000B1
:102F20000000181818181818181818181818181851
:102F300018181818381CF01FE019000000000000D5
:102F40000000000000000000000000000000000081
:102F500000000C18180C180C180C3006300630063F
:102F6000600360036003C001C001000000000000B6
:102F70000000000000000000000000000000000051
:102F80000000C141C141C36163636363636336365B
:102F9000363636361C1C1C1C1C1C000000000000B1
:102FA0000000000000000000000000000000000021
:102FB00000001C38381C300C60066003600360039E
:102FC00060036006300C381C1C3800000000000054
:102FD00000000000000000000000000000000000F1
:102FE00000001830301830187018600C600CE00CBD
:102FF000C006C00680038003800380018001C001F9
:10300000F000700000000000000000000000000060
:103010000000FC1FFC1F000C000600038001C00024
:10302000600030001800FC1FFC1F000000000000C2
:10303000000000000000000000038001C000C0008C
:10304000C000C000C000C000600060003000600030
:103050004000C000C000C000C000C000C00080012F
:103060000003000000000000800180018001800159
:103070008001800180018001800180018001800148
:103080008001800180018001800180018001800138
:1030900080018001000000006000C000C0018001CC
:1030A000800180018001800100030003000600030D
:1030B0000001800180018001800180018001C00049
:1030C00060000000000000000000000000000000A0
:1030D000000000000000F010F81F080F00000000C2
:1030E00000000000000000000000000000000000E0
:1030F000000000000000000018310008000000205F
:1031000018000000140200083031000818000020E8
:10311000B8060000300200081000000001000000A6
:10312000000000000024F4000000FFFF0000000089
:04000005080001D915
:00000001FF
